{
  "_format": "hh-sol-artifact-1",
  "contractName": "Strainz",
  "sourceName": "contracts/Strainz.sol",
  "abi": [
    {
      "inputs": [],
      "stateMutability": "nonpayable",
      "type": "constructor"
    },
    {
      "anonymous": false,
      "inputs": [
        {
          "indexed": true,
          "internalType": "address",
          "name": "owner",
          "type": "address"
        },
        {
          "indexed": true,
          "internalType": "address",
          "name": "approved",
          "type": "address"
        },
        {
          "indexed": true,
          "internalType": "uint256",
          "name": "tokenId",
          "type": "uint256"
        }
      ],
      "name": "Approval",
      "type": "event"
    },
    {
      "anonymous": false,
      "inputs": [
        {
          "indexed": true,
          "internalType": "address",
          "name": "owner",
          "type": "address"
        },
        {
          "indexed": true,
          "internalType": "address",
          "name": "operator",
          "type": "address"
        },
        {
          "indexed": false,
          "internalType": "bool",
          "name": "approved",
          "type": "bool"
        }
      ],
      "name": "ApprovalForAll",
      "type": "event"
    },
    {
      "anonymous": false,
      "inputs": [
        {
          "indexed": false,
          "internalType": "uint256",
          "name": "tradeId",
          "type": "uint256"
        },
        {
          "indexed": false,
          "internalType": "enum Strainz.TradeStatus",
          "name": "status",
          "type": "uint8"
        }
      ],
      "name": "ERC721TradeStatusChange",
      "type": "event"
    },
    {
      "anonymous": false,
      "inputs": [
        {
          "indexed": false,
          "internalType": "uint256",
          "name": "tokenId",
          "type": "uint256"
        }
      ],
      "name": "Minted",
      "type": "event"
    },
    {
      "anonymous": false,
      "inputs": [
        {
          "indexed": false,
          "internalType": "uint256",
          "name": "tradeId",
          "type": "uint256"
        },
        {
          "indexed": false,
          "internalType": "enum Strainz.TradeStatus",
          "name": "status",
          "type": "uint8"
        }
      ],
      "name": "StrainzTradeStatusChange",
      "type": "event"
    },
    {
      "anonymous": false,
      "inputs": [
        {
          "indexed": true,
          "internalType": "address",
          "name": "from",
          "type": "address"
        },
        {
          "indexed": true,
          "internalType": "address",
          "name": "to",
          "type": "address"
        },
        {
          "indexed": true,
          "internalType": "uint256",
          "name": "tokenId",
          "type": "uint256"
        }
      ],
      "name": "Transfer",
      "type": "event"
    },
    {
      "inputs": [
        {
          "internalType": "address",
          "name": "to",
          "type": "address"
        },
        {
          "internalType": "uint256",
          "name": "tokenId",
          "type": "uint256"
        }
      ],
      "name": "approve",
      "outputs": [],
      "stateMutability": "nonpayable",
      "type": "function"
    },
    {
      "inputs": [
        {
          "internalType": "address",
          "name": "owner",
          "type": "address"
        }
      ],
      "name": "balanceOf",
      "outputs": [
        {
          "internalType": "uint256",
          "name": "",
          "type": "uint256"
        }
      ],
      "stateMutability": "view",
      "type": "function"
    },
    {
      "inputs": [],
      "name": "baseURI",
      "outputs": [
        {
          "internalType": "string",
          "name": "",
          "type": "string"
        }
      ],
      "stateMutability": "view",
      "type": "function"
    },
    {
      "inputs": [
        {
          "internalType": "uint256",
          "name": "_first",
          "type": "uint256"
        },
        {
          "internalType": "uint256",
          "name": "_second",
          "type": "uint256"
        }
      ],
      "name": "breed",
      "outputs": [],
      "stateMutability": "nonpayable",
      "type": "function"
    },
    {
      "inputs": [],
      "name": "budz",
      "outputs": [
        {
          "internalType": "contract Budz",
          "name": "",
          "type": "address"
        }
      ],
      "stateMutability": "view",
      "type": "function"
    },
    {
      "inputs": [
        {
          "internalType": "string",
          "name": "prefix",
          "type": "string"
        },
        {
          "internalType": "string",
          "name": "postfix",
          "type": "string"
        },
        {
          "internalType": "uint256",
          "name": "dna",
          "type": "uint256"
        }
      ],
      "name": "buyPresale1",
      "outputs": [],
      "stateMutability": "payable",
      "type": "function"
    },
    {
      "inputs": [
        {
          "internalType": "string",
          "name": "prefix",
          "type": "string"
        },
        {
          "internalType": "string",
          "name": "postfix",
          "type": "string"
        },
        {
          "internalType": "uint256",
          "name": "dna",
          "type": "uint256"
        }
      ],
      "name": "buyPresale2",
      "outputs": [],
      "stateMutability": "payable",
      "type": "function"
    },
    {
      "inputs": [
        {
          "internalType": "uint256",
          "name": "tradeId",
          "type": "uint256"
        }
      ],
      "name": "cancelERC721Trade",
      "outputs": [],
      "stateMutability": "nonpayable",
      "type": "function"
    },
    {
      "inputs": [
        {
          "internalType": "uint256",
          "name": "tradeId",
          "type": "uint256"
        }
      ],
      "name": "cancelStrainzTrade",
      "outputs": [],
      "stateMutability": "nonpayable",
      "type": "function"
    },
    {
      "inputs": [
        {
          "internalType": "uint256",
          "name": "value",
          "type": "uint256"
        },
        {
          "internalType": "uint256",
          "name": "min",
          "type": "uint256"
        },
        {
          "internalType": "uint256",
          "name": "max",
          "type": "uint256"
        }
      ],
      "name": "clamp",
      "outputs": [
        {
          "internalType": "uint256",
          "name": "",
          "type": "uint256"
        }
      ],
      "stateMutability": "pure",
      "type": "function"
    },
    {
      "inputs": [],
      "name": "erc721TradeCount",
      "outputs": [
        {
          "internalType": "uint256",
          "name": "",
          "type": "uint256"
        }
      ],
      "stateMutability": "view",
      "type": "function"
    },
    {
      "inputs": [
        {
          "internalType": "uint256",
          "name": "",
          "type": "uint256"
        }
      ],
      "name": "erc721Trades",
      "outputs": [
        {
          "internalType": "uint256",
          "name": "id",
          "type": "uint256"
        },
        {
          "internalType": "address",
          "name": "poster",
          "type": "address"
        },
        {
          "internalType": "address",
          "name": "nftContractAddress",
          "type": "address"
        },
        {
          "internalType": "uint256",
          "name": "tokenId",
          "type": "uint256"
        },
        {
          "internalType": "uint256",
          "name": "budzPrice",
          "type": "uint256"
        },
        {
          "internalType": "enum Strainz.TradeStatus",
          "name": "status",
          "type": "uint8"
        },
        {
          "internalType": "address",
          "name": "buyer",
          "type": "address"
        }
      ],
      "stateMutability": "view",
      "type": "function"
    },
    {
      "inputs": [
        {
          "internalType": "uint256",
          "name": "tradeId",
          "type": "uint256"
        }
      ],
      "name": "executeERC721Trade",
      "outputs": [],
      "stateMutability": "nonpayable",
      "type": "function"
    },
    {
      "inputs": [
        {
          "internalType": "uint256",
          "name": "tradeId",
          "type": "uint256"
        }
      ],
      "name": "executeStrainzTrade",
      "outputs": [],
      "stateMutability": "nonpayable",
      "type": "function"
    },
    {
      "inputs": [
        {
          "internalType": "uint256",
          "name": "tokenId",
          "type": "uint256"
        }
      ],
      "name": "getApproved",
      "outputs": [
        {
          "internalType": "address",
          "name": "",
          "type": "address"
        }
      ],
      "stateMutability": "view",
      "type": "function"
    },
    {
      "inputs": [
        {
          "internalType": "uint256",
          "name": "dna",
          "type": "uint256"
        }
      ],
      "name": "getBlueGene",
      "outputs": [
        {
          "internalType": "uint256",
          "name": "",
          "type": "uint256"
        }
      ],
      "stateMutability": "pure",
      "type": "function"
    },
    {
      "inputs": [
        {
          "internalType": "uint256",
          "name": "dna",
          "type": "uint256"
        },
        {
          "internalType": "uint256",
          "name": "n",
          "type": "uint256"
        }
      ],
      "name": "getGene",
      "outputs": [
        {
          "internalType": "uint256",
          "name": "",
          "type": "uint256"
        }
      ],
      "stateMutability": "pure",
      "type": "function"
    },
    {
      "inputs": [
        {
          "internalType": "uint256",
          "name": "dna",
          "type": "uint256"
        }
      ],
      "name": "getGreenGene",
      "outputs": [
        {
          "internalType": "uint256",
          "name": "",
          "type": "uint256"
        }
      ],
      "stateMutability": "pure",
      "type": "function"
    },
    {
      "inputs": [
        {
          "internalType": "uint256",
          "name": "dna",
          "type": "uint256"
        }
      ],
      "name": "getRedGene",
      "outputs": [
        {
          "internalType": "uint256",
          "name": "",
          "type": "uint256"
        }
      ],
      "stateMutability": "pure",
      "type": "function"
    },
    {
      "inputs": [
        {
          "internalType": "uint256",
          "name": "tokenId",
          "type": "uint256"
        }
      ],
      "name": "harvest",
      "outputs": [],
      "stateMutability": "nonpayable",
      "type": "function"
    },
    {
      "inputs": [],
      "name": "harvestAll",
      "outputs": [],
      "stateMutability": "nonpayable",
      "type": "function"
    },
    {
      "inputs": [
        {
          "internalType": "uint256",
          "name": "tokenId",
          "type": "uint256"
        }
      ],
      "name": "harvestableAmount",
      "outputs": [
        {
          "internalType": "uint256",
          "name": "",
          "type": "uint256"
        }
      ],
      "stateMutability": "view",
      "type": "function"
    },
    {
      "inputs": [
        {
          "internalType": "address",
          "name": "owner",
          "type": "address"
        },
        {
          "internalType": "address",
          "name": "operator",
          "type": "address"
        }
      ],
      "name": "isApprovedForAll",
      "outputs": [
        {
          "internalType": "bool",
          "name": "",
          "type": "bool"
        }
      ],
      "stateMutability": "view",
      "type": "function"
    },
    {
      "inputs": [
        {
          "internalType": "uint256",
          "name": "dna1",
          "type": "uint256"
        },
        {
          "internalType": "uint256",
          "name": "dna2",
          "type": "uint256"
        }
      ],
      "name": "mixDNA",
      "outputs": [
        {
          "internalType": "uint256",
          "name": "",
          "type": "uint256"
        }
      ],
      "stateMutability": "view",
      "type": "function"
    },
    {
      "inputs": [],
      "name": "name",
      "outputs": [
        {
          "internalType": "string",
          "name": "",
          "type": "string"
        }
      ],
      "stateMutability": "view",
      "type": "function"
    },
    {
      "inputs": [
        {
          "internalType": "address",
          "name": "nftContractAddress",
          "type": "address"
        },
        {
          "internalType": "uint256",
          "name": "tokenId",
          "type": "uint256"
        },
        {
          "internalType": "uint256",
          "name": "price",
          "type": "uint256"
        }
      ],
      "name": "openERC721Trade",
      "outputs": [],
      "stateMutability": "nonpayable",
      "type": "function"
    },
    {
      "inputs": [
        {
          "internalType": "uint256",
          "name": "strainId",
          "type": "uint256"
        },
        {
          "internalType": "uint256",
          "name": "price",
          "type": "uint256"
        }
      ],
      "name": "openStrainzTrade",
      "outputs": [],
      "stateMutability": "nonpayable",
      "type": "function"
    },
    {
      "inputs": [
        {
          "internalType": "uint256",
          "name": "tokenId",
          "type": "uint256"
        }
      ],
      "name": "ownerOf",
      "outputs": [
        {
          "internalType": "address",
          "name": "",
          "type": "address"
        }
      ],
      "stateMutability": "view",
      "type": "function"
    },
    {
      "inputs": [],
      "name": "presale1Left",
      "outputs": [
        {
          "internalType": "uint256",
          "name": "",
          "type": "uint256"
        }
      ],
      "stateMutability": "view",
      "type": "function"
    },
    {
      "inputs": [],
      "name": "presale1Started",
      "outputs": [
        {
          "internalType": "bool",
          "name": "",
          "type": "bool"
        }
      ],
      "stateMutability": "view",
      "type": "function"
    },
    {
      "inputs": [],
      "name": "presale2Left",
      "outputs": [
        {
          "internalType": "uint256",
          "name": "",
          "type": "uint256"
        }
      ],
      "stateMutability": "view",
      "type": "function"
    },
    {
      "inputs": [],
      "name": "presale2Started",
      "outputs": [
        {
          "internalType": "bool",
          "name": "",
          "type": "bool"
        }
      ],
      "stateMutability": "view",
      "type": "function"
    },
    {
      "inputs": [
        {
          "internalType": "address",
          "name": "from",
          "type": "address"
        },
        {
          "internalType": "address",
          "name": "to",
          "type": "address"
        },
        {
          "internalType": "uint256",
          "name": "tokenId",
          "type": "uint256"
        }
      ],
      "name": "safeTransferFrom",
      "outputs": [],
      "stateMutability": "nonpayable",
      "type": "function"
    },
    {
      "inputs": [
        {
          "internalType": "address",
          "name": "from",
          "type": "address"
        },
        {
          "internalType": "address",
          "name": "to",
          "type": "address"
        },
        {
          "internalType": "uint256",
          "name": "tokenId",
          "type": "uint256"
        },
        {
          "internalType": "bytes",
          "name": "_data",
          "type": "bytes"
        }
      ],
      "name": "safeTransferFrom",
      "outputs": [],
      "stateMutability": "nonpayable",
      "type": "function"
    },
    {
      "inputs": [
        {
          "internalType": "address",
          "name": "operator",
          "type": "address"
        },
        {
          "internalType": "bool",
          "name": "approved",
          "type": "bool"
        }
      ],
      "name": "setApprovalForAll",
      "outputs": [],
      "stateMutability": "nonpayable",
      "type": "function"
    },
    {
      "inputs": [
        {
          "internalType": "uint256",
          "name": "factor",
          "type": "uint256"
        }
      ],
      "name": "setGrowFactor",
      "outputs": [],
      "stateMutability": "nonpayable",
      "type": "function"
    },
    {
      "inputs": [],
      "name": "startPresale1",
      "outputs": [],
      "stateMutability": "nonpayable",
      "type": "function"
    },
    {
      "inputs": [],
      "name": "startPresale2",
      "outputs": [],
      "stateMutability": "nonpayable",
      "type": "function"
    },
    {
      "inputs": [
        {
          "internalType": "uint256",
          "name": "",
          "type": "uint256"
        }
      ],
      "name": "strainData",
      "outputs": [
        {
          "internalType": "uint256",
          "name": "id",
          "type": "uint256"
        },
        {
          "internalType": "string",
          "name": "prefix",
          "type": "string"
        },
        {
          "internalType": "string",
          "name": "postfix",
          "type": "string"
        },
        {
          "internalType": "uint256",
          "name": "dna",
          "type": "uint256"
        },
        {
          "internalType": "uint256",
          "name": "generation",
          "type": "uint256"
        },
        {
          "internalType": "uint256",
          "name": "growRate",
          "type": "uint256"
        },
        {
          "internalType": "uint256",
          "name": "lastHarvest",
          "type": "uint256"
        },
        {
          "internalType": "uint256",
          "name": "breedingCost",
          "type": "uint256"
        }
      ],
      "stateMutability": "view",
      "type": "function"
    },
    {
      "inputs": [],
      "name": "strainzTradeCount",
      "outputs": [
        {
          "internalType": "uint256",
          "name": "",
          "type": "uint256"
        }
      ],
      "stateMutability": "view",
      "type": "function"
    },
    {
      "inputs": [
        {
          "internalType": "uint256",
          "name": "",
          "type": "uint256"
        }
      ],
      "name": "strainzTrades",
      "outputs": [
        {
          "internalType": "uint256",
          "name": "id",
          "type": "uint256"
        },
        {
          "internalType": "address",
          "name": "poster",
          "type": "address"
        },
        {
          "internalType": "uint256",
          "name": "strainId",
          "type": "uint256"
        },
        {
          "internalType": "uint256",
          "name": "budzPrice",
          "type": "uint256"
        },
        {
          "internalType": "enum Strainz.TradeStatus",
          "name": "status",
          "type": "uint8"
        },
        {
          "internalType": "address",
          "name": "buyer",
          "type": "address"
        }
      ],
      "stateMutability": "view",
      "type": "function"
    },
    {
      "inputs": [
        {
          "internalType": "bytes4",
          "name": "interfaceId",
          "type": "bytes4"
        }
      ],
      "name": "supportsInterface",
      "outputs": [
        {
          "internalType": "bool",
          "name": "",
          "type": "bool"
        }
      ],
      "stateMutability": "view",
      "type": "function"
    },
    {
      "inputs": [],
      "name": "symbol",
      "outputs": [
        {
          "internalType": "string",
          "name": "",
          "type": "string"
        }
      ],
      "stateMutability": "view",
      "type": "function"
    },
    {
      "inputs": [
        {
          "internalType": "uint256",
          "name": "index",
          "type": "uint256"
        }
      ],
      "name": "tokenByIndex",
      "outputs": [
        {
          "internalType": "uint256",
          "name": "",
          "type": "uint256"
        }
      ],
      "stateMutability": "view",
      "type": "function"
    },
    {
      "inputs": [
        {
          "internalType": "address",
          "name": "owner",
          "type": "address"
        },
        {
          "internalType": "uint256",
          "name": "index",
          "type": "uint256"
        }
      ],
      "name": "tokenOfOwnerByIndex",
      "outputs": [
        {
          "internalType": "uint256",
          "name": "",
          "type": "uint256"
        }
      ],
      "stateMutability": "view",
      "type": "function"
    },
    {
      "inputs": [
        {
          "internalType": "uint256",
          "name": "tokenId",
          "type": "uint256"
        }
      ],
      "name": "tokenURI",
      "outputs": [
        {
          "internalType": "string",
          "name": "",
          "type": "string"
        }
      ],
      "stateMutability": "view",
      "type": "function"
    },
    {
      "inputs": [],
      "name": "totalSupply",
      "outputs": [
        {
          "internalType": "uint256",
          "name": "",
          "type": "uint256"
        }
      ],
      "stateMutability": "view",
      "type": "function"
    },
    {
      "inputs": [
        {
          "internalType": "address",
          "name": "from",
          "type": "address"
        },
        {
          "internalType": "address",
          "name": "to",
          "type": "address"
        },
        {
          "internalType": "uint256",
          "name": "tokenId",
          "type": "uint256"
        }
      ],
      "name": "transferFrom",
      "outputs": [],
      "stateMutability": "nonpayable",
      "type": "function"
    }
  ],
  "bytecode": "0x60806040526000600a819055600b819055600c55606460128190556013556014805461ffff1916905560ff6015553480156200003a57600080fd5b506040518060400160405280600781526020016629ba3930b4b73d60c91b8152506040518060400160405280600781526020016629aa2920a4a72d60c91b815250620000936301ffc9a760e01b620001e260201b60201c565b8151620000a890600690602085019062000280565b508051620000be90600790602084019062000280565b50620000d16380ac58cd60e01b620001e2565b620000e3635b5e139f60e01b620001e2565b620000f563780e9d6360e01b620001e2565b5050600d80546001600160a01b03191633179055604080516060810190915260248082526200012e919062005a1a602083013962000267565b6040516200013c9062000305565b604051809103906000f08015801562000159573d6000803e3d6000fd5b50601180546001600160a01b0319166001600160a01b039283161790819055604080516308934a5f60e31b8152336004820152620f424060248201529051919092169163449a52f891604480830192600092919082900301818387803b158015620001c357600080fd5b505af1158015620001d8573d6000803e3d6000fd5b505050506200032a565b6001600160e01b0319808216141562000242576040805162461bcd60e51b815260206004820152601c60248201527f4552433136353a20696e76616c696420696e7465726661636520696400000000604482015290519081900360640190fd5b6001600160e01b0319166000908152602081905260409020805460ff19166001179055565b80516200027c90600990602084019062000280565b5050565b828054600181600116156101000203166002900490600052602060002090601f016020900481019282601f10620002c357805160ff1916838001178555620002f3565b82800160010185558215620002f3579182015b82811115620002f3578251825591602001919060010190620002d6565b506200030192915062000313565b5090565b61124580620047d583390190565b5b8082111562000301576000815560010162000314565b61449b806200033a6000396000f3fe6080604052600436106103135760003560e01c80636c0360eb1161019a578063a2f6031f116100e1578063d9ecad7b1161008a578063e985e9c511610064578063e985e9c514610f49578063eb4c9e8614610f84578063f34632c914610f9957610313565b8063d9ecad7b14610dbd578063ddc6326214610ded578063e14285bb14610e1757610313565b8063c3dca07d116100bb578063c3dca07d14610d69578063c87b56dd14610d7e578063cd162faf14610da857610313565b8063a2f6031f14610c42578063aa75de6014610c6c578063b88d4fde14610c9657610313565b80637e9aa2c01161014357806395d89b411161011d57806395d89b4114610bbc5780639e42244714610bd1578063a22cb46514610c0757610313565b80637e9aa2c014610b535780638ed955b914610b7d5780638fea959314610b9257610313565b806370a082311161017457806370a08231146109c7578063714cb50f146109fa57806372efeb4414610a2457610313565b80636c0360eb1461096d5780636cf683da146109825780636e719888146109b257610313565b80632f745c591161025e57806354314d7c11610207578063629b7d73116101e1578063629b7d73146108fe5780636352211e1461092e57806365b89c011461095857610313565b806354314d7c1461082a57806359122c36146108545780635b6988cb146108d457610313565b806336a6aada1161023857806336a6aada146107a857806342842e0e146107bd5780634f6ccce71461080057610313565b80632f745c591461073057806332db01eb146107695780633538339f1461077e57610313565b806313f66b9c116102c057806323266a601161029a57806323266a601461063357806323b872dd1461065d5780632756d9b3146106a057610313565b806313f66b9c146105d957806318160ddd146106095780631d8c13bf1461061e57610313565b8063081812fc116102f1578063081812fc14610429578063095ea7b31461046f5780630c3876c6146104aa57610313565b806301ffc9a71461031857806305d0d9e21461037857806306fdde031461039f575b600080fd5b34801561032457600080fd5b506103646004803603602081101561033b57600080fd5b50357fffffffff0000000000000000000000000000000000000000000000000000000016610fd8565b604080519115158252519081900360200190f35b34801561038457600080fd5b5061038d611013565b60408051918252519081900360200190f35b3480156103ab57600080fd5b506103b4611019565b6040805160208082528351818301528351919283929083019185019080838360005b838110156103ee5781810151838201526020016103d6565b50505050905090810190601f16801561041b5780820380516001836020036101000a031916815260200191505b509250505060405180910390f35b34801561043557600080fd5b506104536004803603602081101561044c57600080fd5b50356110af565b604080516001600160a01b039092168252519081900360200190f35b34801561047b57600080fd5b506104a86004803603604081101561049257600080fd5b506001600160a01b038135169060200135611111565b005b6104a8600480360360608110156104c057600080fd5b8101906020810181356401000000008111156104db57600080fd5b8201836020820111156104ed57600080fd5b8035906020019184600183028401116401000000008311171561050f57600080fd5b91908080601f016020809104026020016040519081016040528093929190818152602001838380828437600092019190915250929594936020810193503591505064010000000081111561056257600080fd5b82018360208201111561057457600080fd5b8035906020019184600183028401116401000000008311171561059657600080fd5b91908080601f01602080910402602001604051908101604052809392919081815260200183838082843760009201919091525092955050913592506111ec915050565b3480156105e557600080fd5b506104a8600480360360408110156105fc57600080fd5b5080359060200135611322565b34801561061557600080fd5b5061038d611491565b34801561062a57600080fd5b506104a86114a2565b34801561063f57600080fd5b506104a86004803603602081101561065657600080fd5b503561151d565b34801561066957600080fd5b506104a86004803603606081101561068057600080fd5b506001600160a01b03813581169160208101359091169060400135611768565b3480156106ac57600080fd5b506106ca600480360360208110156106c357600080fd5b50356117bf565b60405180888152602001876001600160a01b03168152602001866001600160a01b0316815260200185815260200184815260200183600281111561070a57fe5b8152602001826001600160a01b0316815260200197505050505050505060405180910390f35b34801561073c57600080fd5b5061038d6004803603604081101561075357600080fd5b506001600160a01b03813516906020013561180d565b34801561077557600080fd5b5061038d611838565b34801561078a57600080fd5b5061038d600480360360208110156107a157600080fd5b503561183e565b3480156107b457600080fd5b506104a8611846565b3480156107c957600080fd5b506104a8600480360360608110156107e057600080fd5b506001600160a01b038135811691602081013590911690604001356118bf565b34801561080c57600080fd5b5061038d6004803603602081101561082357600080fd5b50356118da565b34801561083657600080fd5b5061038d6004803603602081101561084d57600080fd5b50356118f0565b34801561086057600080fd5b5061087e6004803603602081101561087757600080fd5b503561190e565b60405180878152602001866001600160a01b031681526020018581526020018481526020018360028111156108af57fe5b8152602001826001600160a01b03168152602001965050505050505060405180910390f35b3480156108e057600080fd5b506104a8600480360360208110156108f757600080fd5b5035611954565b34801561090a57600080fd5b5061038d6004803603604081101561092157600080fd5b50803590602001356119c3565b34801561093a57600080fd5b506104536004803603602081101561095157600080fd5b50356119e6565b34801561096457600080fd5b50610364611a0e565b34801561097957600080fd5b506103b4611a1c565b34801561098e57600080fd5b5061038d600480360360408110156109a557600080fd5b5080359060200135611a7d565b3480156109be57600080fd5b50610453611cc6565b3480156109d357600080fd5b5061038d600480360360208110156109ea57600080fd5b50356001600160a01b0316611cd5565b348015610a0657600080fd5b5061038d60048036036020811015610a1d57600080fd5b5035611d3d565b6104a860048036036060811015610a3a57600080fd5b810190602081018135640100000000811115610a5557600080fd5b820183602082011115610a6757600080fd5b80359060200191846001830284011164010000000083111715610a8957600080fd5b91908080601f0160208091040260200160405190810160405280939291908181526020018383808284376000920191909152509295949360208101935035915050640100000000811115610adc57600080fd5b820183602082011115610aee57600080fd5b80359060200191846001830284011164010000000083111715610b1057600080fd5b91908080601f0160208091040260200160405190810160405280939291908181526020018383808284376000920191909152509295505091359250611d69915050565b348015610b5f57600080fd5b506104a860048036036020811015610b7657600080fd5b5035611e89565b348015610b8957600080fd5b506104a8612046565b348015610b9e57600080fd5b506104a860048036036020811015610bb557600080fd5b503561211f565b348015610bc857600080fd5b506103b4612257565b348015610bdd57600080fd5b5061038d60048036036060811015610bf457600080fd5b50803590602081013590604001356122b8565b348015610c1357600080fd5b506104a860048036036040811015610c2a57600080fd5b506001600160a01b03813516906020013515156122e1565b348015610c4e57600080fd5b5061038d60048036036020811015610c6557600080fd5b50356123e6565b348015610c7857600080fd5b506104a860048036036020811015610c8f57600080fd5b50356123fa565b348015610ca257600080fd5b506104a860048036036080811015610cb957600080fd5b6001600160a01b03823581169260208101359091169160408201359190810190608081016060820135640100000000811115610cf457600080fd5b820183602082011115610d0657600080fd5b80359060200191846001830284011164010000000083111715610d2857600080fd5b91908080601f0160208091040260200160405190810160405280939291908181526020018383808284376000920191909152509295506126bf945050505050565b348015610d7557600080fd5b5061036461271d565b348015610d8a57600080fd5b506103b460048036036020811015610da157600080fd5b5035612726565b348015610db457600080fd5b5061038d6129cd565b348015610dc957600080fd5b506104a860048036036040811015610de057600080fd5b50803590602001356129d3565b348015610df957600080fd5b506104a860048036036020811015610e1057600080fd5b5035612db7565b348015610e2357600080fd5b50610e4160048036036020811015610e3a57600080fd5b5035612e74565b60405180898152602001806020018060200188815260200187815260200186815260200185815260200184815260200183810383528a818151815260200191508051906020019080838360005b83811015610ea6578181015183820152602001610e8e565b50505050905090810190601f168015610ed35780820380516001836020036101000a031916815260200191505b5083810382528951815289516020918201918b019080838360005b83811015610f06578181015183820152602001610eee565b50505050905090810190601f168015610f335780820380516001836020036101000a031916815260200191505b509a505050505050505050505060405180910390f35b348015610f5557600080fd5b5061036460048036036040811015610f6c57600080fd5b506001600160a01b0381358116916020013516612fcb565b348015610f9057600080fd5b5061038d612ff9565b348015610fa557600080fd5b506104a860048036036060811015610fbc57600080fd5b506001600160a01b038135169060208101359060400135612fff565b7fffffffff00000000000000000000000000000000000000000000000000000000811660009081526020819052604090205460ff165b919050565b60125481565b60068054604080516020601f60026000196101006001881615020190951694909404938401819004810282018101909252828152606093909290918301828280156110a55780601f1061107a576101008083540402835291602001916110a5565b820191906000526020600020905b81548152906001019060200180831161108857829003601f168201915b5050505050905090565b60006110ba82613289565b6110f55760405162461bcd60e51b815260040180806020018281038252602c815260200180614390602c913960400191505060405180910390fd5b506000908152600460205260409020546001600160a01b031690565b600061111c826119e6565b9050806001600160a01b0316836001600160a01b0316141561116f5760405162461bcd60e51b81526004018080602001828103825260218152602001806144146021913960400191505060405180910390fd5b806001600160a01b0316611181613296565b6001600160a01b031614806111a257506111a28161119d613296565b612fcb565b6111dd5760405162461bcd60e51b81526004018080602001828103825260388152602001806142e36038913960400191505060405180910390fd5b6111e7838361329a565b505050565b60145460ff166111fb57600080fd5b60006012541161120a57600080fd5b605a601254111561122a5761122533848484600060ff613315565b6112a7565b34670de0b6b3a76400001461123e57600080fd5b600d546040516001600160a01b0390911690600090670de0b6b3a76400009082818181858883f1935050505015801561127b573d6000803e3d6000fd5b50603260125411156112975761122533848484600060ff613315565b6112a733848484600060c8613315565b601154604080516308934a5f60e31b81523360048201526101f4602482015290516001600160a01b039092169163449a52f89160448082019260009290919082900301818387803b1580156112fb57600080fd5b505af115801561130f573d6000803e3d6000fd5b5050601280546000190190555050505050565b3361132c836119e6565b6001600160a01b03161461133f57600080fd5b61134a333084613427565b6000611354613573565b6040805160c0810182528281523360208083019182528284018881526060840188815260006080860181815260a08701829052888252600e909452959095208451815592516001808501805473ffffffffffffffffffffffffffffffffffffffff19166001600160a01b039093169290921790915590516002808501919091559451600384015590516004830180549697509395929490939260ff1916919084908111156113fe57fe5b021790555060a09190910151600490910180546001600160a01b039092166101000274ffffffffffffffffffffffffffffffffffffffff0019909216919091179055611448613584565b6040518181527fcdfd441dd125c8f416402b811ac3bd2d59e226cf481f9c878a608955d5f6ee7e90829060009060208101825b81526020019250505060405180910390a1505050565b600061149d600261358f565b905090565b6114aa613296565b600d546001600160a01b0390811691161461150c576040805162461bcd60e51b815260206004820181905260248201527f4f776e61626c653a2063616c6c6572206973206e6f7420746865206f776e6572604482015290519081900360640190fd5b6014805461ff001916610100179055565b6115256140d9565b6000828152600e6020908152604091829020825160c0810184528154815260018201546001600160a01b0316928101929092526002808201549383019390935260038101546060830152600481015491929091608084019160ff9091169081111561158c57fe5b600281111561159757fe5b81526004919091015461010090046001600160a01b031660209091015290506000816080015160028111156115c857fe5b146115d257600080fd5b600060328260600151816115e257fe5b6011546040805163079cc67960e41b8152336004820152939092046024840181905291519193506001600160a01b0316916379cc679091604480830192600092919082900301818387803b15801561163957600080fd5b505af115801561164d573d6000803e3d6000fd5b50506011546020808601516060870151604080516323b872dd60e01b81523360048201526001600160a01b039384166024820152918890036044830152519190931694506323b872dd93506064808401938290030181600087803b1580156116b457600080fd5b505af11580156116c8573d6000803e3d6000fd5b505050506040513d60208110156116de57600080fd5b505060408201516116f29030903390613427565b6000838152600e60209081526040918290206004018054600160ff19909116811774ffffffffffffffffffffffffffffffffffffffff00191633610100021790915591518581527fcdfd441dd125c8f416402b811ac3bd2d59e226cf481f9c878a608955d5f6ee7e92869290919081018261147b565b611779611773613296565b8261359a565b6117b45760405162461bcd60e51b81526004018080602001828103825260318152602001806144356031913960400191505060405180910390fd5b6111e7838383613427565b600f6020526000908152604090208054600182015460028301546003840154600485015460059095015493946001600160a01b0393841694928416939192909160ff82169161010090041687565b6001600160a01b038216600090815260016020526040812061182f908361363e565b90505b92915050565b600b5490565b6103e8900690565b61184e613296565b600d546001600160a01b039081169116146118b0576040805162461bcd60e51b815260206004820181905260248201527f4f776e61626c653a2063616c6c6572206973206e6f7420746865206f776e6572604482015290519081900360640190fd5b6014805460ff19166001179055565b6111e7838383604051806020016040528060008152506126bf565b6000806118e860028461364a565b509392505050565b60006103e8808306620f4240845b06038161190757fe5b0492915050565b600e602052600090815260409020805460018201546002830154600384015460049094015492936001600160a01b03928316939192909160ff8116916101009091041686565b61195c613296565b600d546001600160a01b039081169116146119be576040805162461bcd60e51b815260206004820181905260248201527f4f776e61626c653a2063616c6c6572206973206e6f7420746865206f776e6572604482015290519081900360640190fd5b601555565b6000600a82600f03600a0a84816119d657fe5b04816119de57fe5b069392505050565b6000611832826040518060600160405280602981526020016143456029913960029190613666565b601454610100900460ff1681565b60098054604080516020601f60026000196101006001881615020190951694909404938401819004810282018101909252828152606093909290918301828280156110a55780601f1061107a576101008083540402835291602001916110a5565b600080611a88613673565b9050611a92614123565b604051806101400160405280600784611aac8860006119c3565b611ab78a60006119c3565b020281611ac057fe5b066001018152602001600784611ad78860016119c3565b611ae28a60016119c3565b020281611aeb57fe5b066001018152602001600684611b028860026119c3565b611b0d8a60026119c3565b020281611b1657fe5b066001018152602001600584611b2d8860036119c3565b611b388a60036119c3565b020281611b4157fe5b066001018152602001600284611b588860046119c3565b611b638a60046119c3565b020281611b6c57fe5b068152602001600284611b808860056119c3565b611b8b8a60056119c3565b020281611b9457fe5b068152602001600284611ba88860066119c3565b611bb38a60066119c3565b020281611bbc57fe5b06815260200161010084611bcf886123e6565b611bd88a6123e6565b020281611be157fe5b06815260200161010084611bf4886118f0565b611bfd8a6118f0565b020281611c0657fe5b06815260200161010084611c198861183e565b611c228a61183e565b020281611c2b57fe5b068152509050600061010082610120015181611c4357fe5b068261010001516103e8028360e00151620f4240028460c00151633b9aca00028560a001516402540be40002866080015164174876e80002876060015164e8d4a510000288604001516509184e72a000028960200151655af3107a4000028a6000015166038d7ea4c6800002010101010101010101905080935050505092915050565b6011546001600160a01b031681565b60006001600160a01b038216611d1c5760405162461bcd60e51b815260040180806020018281038252602a81526020018061431b602a913960400191505060405180910390fd5b6001600160a01b03821660009081526001602052604090206118329061358f565b6000908152601060205260409020600681015460155460059092015462dd7c0092024291909103020490565b601454610100900460ff16611d7d57600080fd5b600060135411611d8c57600080fd5b34671bc16d674ec8000014611da057600080fd5b600d546040516001600160a01b0390911690600090671bc16d674ec800009082818181858883f19350505050158015611ddd573d6000803e3d6000fd5b5060326013541115611dfe57611df93384848460006096613315565b611e0e565b611e0e338484846000607d613315565b601154604080516308934a5f60e31b81523360048201526101f4602482015290516001600160a01b039092169163449a52f89160448082019260009290919082900301818387803b158015611e6257600080fd5b505af1158015611e76573d6000803e3d6000fd5b5050601380546000190190555050505050565b611e91614176565b6000828152600f6020908152604091829020825160e0810184528154815260018201546001600160a01b03908116938201939093526002808301549093169381019390935260038101546060840152600481015460808401526005810154909160a084019160ff1690811115611f0357fe5b6002811115611f0e57fe5b81526005919091015461010090046001600160a01b0390811660209283015290820151919250163314611f4057600080fd5b60008160a001516002811115611f5257fe5b14611f5c57600080fd5b600081604001519050806001600160a01b03166323b872dd30846020015185606001516040518463ffffffff1660e01b815260040180846001600160a01b03168152602001836001600160a01b031681526020018281526020019350505050600060405180830381600087803b158015611fd557600080fd5b505af1158015611fe9573d6000803e3d6000fd5b5050506000848152600f6020526040902060050180546002925060ff191660018302179055506040518381527f063013d0db83523caf2bbe63c42e48ebd60db20e00cb3c6bbeb5dc11b9bd1d00908490600290602081018261147b565b600061205133611cd5565b90506000811161206057600080fd5b6000805b828110156120af5760006010600061207c338561180d565b815260200190815260200160002090506120998160000154611d3d565b4260069092019190915590910190600101612064565b50601154604080516308934a5f60e31b81523360048201526024810184905290516001600160a01b039092169163449a52f89160448082019260009290919082900301818387803b15801561210357600080fd5b505af1158015612117573d6000803e3d6000fd5b505050505050565b6121276140d9565b6000828152600e6020908152604091829020825160c0810184528154815260018201546001600160a01b0316928101929092526002808201549383019390935260038101546060830152600481015491929091608084019160ff9091169081111561218e57fe5b600281111561219957fe5b81526004919091015461010090046001600160a01b03908116602092830152908201519192501633146121cb57600080fd5b6000816080015160028111156121dd57fe5b146121e757600080fd5b6121fa3082602001518360400151613427565b6000828152600e6020908152604091829020600401805460ff1916600290811790915582518581529182015281517fcdfd441dd125c8f416402b811ac3bd2d59e226cf481f9c878a608955d5f6ee7e929181900390910190a15050565b60078054604080516020601f60026000196101006001881615020190951694909404938401819004810282018101909252828152606093909290918301828280156110a55780601f1061107a576101008083540402835291602001916110a5565b60008284106122d5578184116122ce57836122d0565b815b6122d7565b825b90505b9392505050565b6122e9613296565b6001600160a01b0316826001600160a01b0316141561234f576040805162461bcd60e51b815260206004820152601960248201527f4552433732313a20617070726f766520746f2063616c6c657200000000000000604482015290519081900360640190fd5b806005600061235c613296565b6001600160a01b03908116825260208083019390935260409182016000908120918716808252919093529120805460ff1916921515929092179091556123a0613296565b6001600160a01b03167f17307eab39ab6107e8899845ad3d59bd9653f200f220920489ca2b5937696c318360405180821515815260200191505060405180910390a35050565b6000620f4240808306633b9aca00846118fe565b612402614176565b6000828152600f6020908152604091829020825160e0810184528154815260018201546001600160a01b03908116938201939093526002808301549093169381019390935260038101546060840152600481015460808401526005810154909160a084019160ff169081111561247457fe5b600281111561247f57fe5b81526005919091015461010090046001600160a01b0316602090910152905060008160a0015160028111156124b057fe5b146124ba57600080fd5b600060328260800151816124ca57fe5b6011546040805163079cc67960e41b8152336004820152939092046024840181905291519193506001600160a01b0316916379cc679091604480830192600092919082900301818387803b15801561252157600080fd5b505af1158015612535573d6000803e3d6000fd5b50506011546020808601516080870151604080516323b872dd60e01b81523360048201526001600160a01b039384166024820152918890036044830152519190931694506323b872dd93506064808401938290030181600087803b15801561259c57600080fd5b505af11580156125b0573d6000803e3d6000fd5b505050506040513d60208110156125c657600080fd5b5050604080830151606084015182516323b872dd60e01b81523060048201523360248201526044810191909152915190916001600160a01b038316916323b872dd9160648082019260009290919082900301818387803b15801561262957600080fd5b505af115801561263d573d6000803e3d6000fd5b5050506000858152600f60209081526040918290206005018054600160ff19909116811774ffffffffffffffffffffffffffffffffffffffff00191633610100021790915582518881529182015281517f063013d0db83523caf2bbe63c42e48ebd60db20e00cb3c6bbeb5dc11b9bd1d0093509081900390910190a150505050565b6126d06126ca613296565b8361359a565b61270b5760405162461bcd60e51b81526004018080602001828103825260318152602001806144356031913960400191505060405180910390fd5b612717848484846136a2565b50505050565b60145460ff1681565b606061273182613289565b61276c5760405162461bcd60e51b815260040180806020018281038252602f8152602001806143e5602f913960400191505060405180910390fd5b60008281526008602090815260409182902080548351601f60026000196101006001861615020190931692909204918201849004840281018401909452808452606093928301828280156128015780601f106127d657610100808354040283529160200191612801565b820191906000526020600020905b8154815290600101906020018083116127e457829003601f168201915b50506009549394505050506002600019610100600184161502019091160461282a57905061100e565b8051156128fb5760098160405160200180838054600181600116156101000203166002900480156128925780601f10612870576101008083540402835291820191612892565b820191906000526020600020905b81548152906001019060200180831161287e575b5050825160208401908083835b602083106128be5780518252601f19909201916020918201910161289f565b6001836020036101000a0380198251168184511680821785525050505050509050019250505060405160208183030381529060405291505061100e565b6009612906846136f4565b60405160200180838054600181600116156101000203166002900480156129645780601f10612942576101008083540402835291820191612964565b820191906000526020600020905b815481529060010190602001808311612950575b5050825160208401908083835b602083106129905780518252601f199092019160209182019101612971565b6001836020036101000a03801982511681845116808217855250505050505090500192505050604051602081830303815290604052915050919050565b60135481565b336129dd836119e6565b6001600160a01b0316148015612a035750336129f8826119e6565b6001600160a01b0316145b612a0c57600080fd5b6000828152601060205260408082208383529082206007808301549082015492939192612a399190613803565b601154604080517f70a08231000000000000000000000000000000000000000000000000000000008152336004820152905192935083926001600160a01b03909216916370a0823191602480820192602092909190829003018186803b158015612aa257600080fd5b505afa158015612ab6573d6000803e3d6000fd5b505050506040513d6020811015612acc57600080fd5b505110801590612b6f5750601154604080517fdd62ed3e000000000000000000000000000000000000000000000000000000008152336004820152306024820152905183926001600160a01b03169163dd62ed3e916044808301926020929190829003018186803b158015612b4057600080fd5b505afa158015612b54573d6000803e3d6000fd5b505050506040513d6020811015612b6a57600080fd5b505110155b612b7857600080fd5b6011546040805163079cc67960e41b81523360048201526024810184905290516001600160a01b03909216916379cc67909160448082019260009290919082900301818387803b158015612bcb57600080fd5b505af1158015612bdf573d6000803e3d6000fd5b505050506000612bf784600301548460030154611a7d565b90506000612c0d85600401548560040154613803565b60010190506000600243066000149050612c3486600701546002026103e8620fa0006122b8565b8660070181905550612c5385600701546002026103e8620fa0006122b8565b6007860155612dad3382612c6a5786600101612c6f565b876001015b805460408051602060026001851615610100026000190190941693909304601f81018490048402820184019092528181529291830182828015612cf35780601f10612cc857610100808354040283529160200191612cf3565b820191906000526020600020905b815481529060010190602001808311612cd657829003601f168201915b505050505083612d065788600201612d0b565b876002015b805460408051602060026001851615610100026000190190941693909304601f81018490048402820184019092528181529291830182828015612d8f5780601f10612d6457610100808354040283529160200191612d8f565b820191906000526020600020905b815481529060010190602001808311612d7257829003601f168201915b50505050508686612da88c600501548c6005015461381b565b613315565b5050505050505050565b33612dc1826119e6565b6001600160a01b031614612dd457600080fd5b600081815260106020526040812090612dec83611d3d565b905060008111612dfb57600080fd5b601154604080516308934a5f60e31b81523360048201526024810184905290516001600160a01b039092169163449a52f89160448082019260009290919082900301818387803b158015612e4e57600080fd5b505af1158015612e62573d6000803e3d6000fd5b50505050428260060181905550505050565b6010602090815260009182526040918290208054600180830180548651600293821615610100026000190190911692909204601f810186900486028301860190965285825291949293909290830182828015612f115780601f10612ee657610100808354040283529160200191612f11565b820191906000526020600020905b815481529060010190602001808311612ef457829003601f168201915b50505060028085018054604080516020601f6000196101006001871615020190941695909504928301859004850281018501909152818152959695945090925090830182828015612fa35780601f10612f7857610100808354040283529160200191612fa3565b820191906000526020600020905b815481529060010190602001808311612f8657829003601f168201915b5050505050908060030154908060040154908060050154908060060154908060070154905088565b6001600160a01b03918216600090815260056020908152604080832093909416825291909152205460ff1690565b600c5490565b604080517f6352211e000000000000000000000000000000000000000000000000000000008152600481018490529051849133916001600160a01b03841691636352211e916024808301926020929190829003018186803b15801561306357600080fd5b505afa158015613077573d6000803e3d6000fd5b505050506040513d602081101561308d57600080fd5b50516001600160a01b0316146130a257600080fd5b604080516323b872dd60e01b81523360048201523060248201526044810185905290516001600160a01b038316916323b872dd91606480830192600092919082900301818387803b1580156130f657600080fd5b505af115801561310a573d6000803e3d6000fd5b505050506000613118613837565b90506040518060e00160405280828152602001336001600160a01b03168152602001866001600160a01b031681526020018581526020018481526020016000600281111561316257fe5b815260006020918201819052838152600f825260409081902083518155918301516001808401805473ffffffffffffffffffffffffffffffffffffffff199081166001600160a01b039485161790915592850151600280860180549095169190931617909255606084015160038401556080840151600484015560a08401516005840180549193909260ff199092169184908111156131fd57fe5b021790555060c09190910151600590910180546001600160a01b039092166101000274ffffffffffffffffffffffffffffffffffffffff0019909216919091179055613247613848565b604080518281526000602082015281517f063013d0db83523caf2bbe63c42e48ebd60db20e00cb3c6bbeb5dc11b9bd1d00929181900390910190a15050505050565b6000611832600283613853565b3390565b6000818152600460205260409020805473ffffffffffffffffffffffffffffffffffffffff19166001600160a01b03841690811790915581906132dc826119e6565b6001600160a01b03167f8c5be1e5ebec7d5bd14f71427d1e84f3dd0314c0f7b2291e5b200ac8c7c3b92560405160405180910390a45050565b600061331f61385f565b905061332b8782613870565b61333361399e565b60408051610100810182528281526020808201898152828401899052606083018890526080830187905260a083018690524260c08401526103e860e084015260008581526010835293909320825181559251805192939261339a92600185019201906141ab565b50604082015180516133b69160028401916020909101906141ab565b50606082015160038201556080820151600482015560a0820151600582015560c0820151600682015560e0909101516007909101556040805182815290517f176b02bb2d12439ff7a20b59f402cca16c76f50508b13ef3166a600eb719354a9181900360200190a150505050505050565b826001600160a01b031661343a826119e6565b6001600160a01b03161461347f5760405162461bcd60e51b81526004018080602001828103825260298152602001806143bc6029913960400191505060405180910390fd5b6001600160a01b0382166134c45760405162461bcd60e51b81526004018080602001828103825260248152602001806142936024913960400191505060405180910390fd5b6134cf8383836111e7565b6134da60008261329a565b6001600160a01b03831660009081526001602052604090206134fc90826139a9565b506001600160a01b038216600090815260016020526040902061351f90826139b5565b5061352c600282846139c1565b5080826001600160a01b0316846001600160a01b03167fddf252ad1be2c89b69c2b068fc378daa952ba7f163c4a11628f55a4df523b3ef60405160405180910390a4505050565b600b5460009061149d9060016139d7565b600b80546001019055565b600061183282613a31565b60006135a582613289565b6135e05760405162461bcd60e51b815260040180806020018281038252602c8152602001806142b7602c913960400191505060405180910390fd5b60006135eb836119e6565b9050806001600160a01b0316846001600160a01b031614806136265750836001600160a01b031661361b846110af565b6001600160a01b0316145b8061363657506136368185612fcb565b949350505050565b600061182f8383613a35565b60008080806136598686613a99565b9097909650945050505050565b60006122d7848484613b14565b604080514460208083019190915242828401528251808303840181526060909201909252805191012060ff1690565b6136ad848484613427565b6136b984848484613bde565b6127175760405162461bcd60e51b81526004018080602001828103825260328152602001806142616032913960400191505060405180910390fd5b606081613735575060408051808201909152600181527f3000000000000000000000000000000000000000000000000000000000000000602082015261100e565b8160005b811561374d57600101600a82049150613739565b60608167ffffffffffffffff8111801561376657600080fd5b506040519080825280601f01601f191660200182016040528015613791576020820181803683370190505b50859350905060001982015b83156137fa57600a840660300160f81b828280600190039350815181106137c057fe5b60200101907effffffffffffffffffffffffffffffffffffffffffffffffffffffffffffff1916908160001a905350600a8404935061379d565b50949350505050565b600081831115613814575081611832565b5080611832565b600061182f6001603243060360028585010403600060ff6122b8565b600c5460009061149d9060016139d7565b600c80546001019055565b600061182f8383613d88565b600a5460009061149d9060016139d7565b6001600160a01b0382166138cb576040805162461bcd60e51b815260206004820181905260248201527f4552433732313a206d696e7420746f20746865207a65726f2061646472657373604482015290519081900360640190fd5b6138d481613289565b15613926576040805162461bcd60e51b815260206004820152601c60248201527f4552433732313a20746f6b656e20616c7265616479206d696e74656400000000604482015290519081900360640190fd5b613932600083836111e7565b6001600160a01b038216600090815260016020526040902061395490826139b5565b50613961600282846139c1565b5060405181906001600160a01b038416906000907fddf252ad1be2c89b69c2b068fc378daa952ba7f163c4a11628f55a4df523b3ef908290a45050565b600a80546001019055565b600061182f8383613da0565b600061182f8383613e66565b60006122d784846001600160a01b038516613eb0565b60008282018381101561182f576040805162461bcd60e51b815260206004820152601b60248201527f536166654d6174683a206164646974696f6e206f766572666c6f770000000000604482015290519081900360640190fd5b5490565b81546000908210613a775760405162461bcd60e51b815260040180806020018281038252602281526020018061423f6022913960400191505060405180910390fd5b826000018281548110613a8657fe5b9060005260206000200154905092915050565b815460009081908310613add5760405162461bcd60e51b815260040180806020018281038252602281526020018061436e6022913960400191505060405180910390fd5b6000846000018481548110613aee57fe5b906000526020600020906002020190508060000154816001015492509250509250929050565b60008281526001840160205260408120548281613baf5760405162461bcd60e51b81526004018080602001828103825283818151815260200191508051906020019080838360005b83811015613b74578181015183820152602001613b5c565b50505050905090810190601f168015613ba15780820380516001836020036101000a031916815260200191505b509250505060405180910390fd5b50846000016001820381548110613bc257fe5b9060005260206000209060020201600101549150509392505050565b6000613bf2846001600160a01b0316613f47565b613bfe57506001613636565b6060613d36630a85bd0160e11b613c13613296565b88878760405160240180856001600160a01b03168152602001846001600160a01b0316815260200183815260200180602001828103825283818151815260200191508051906020019080838360005b83811015613c7a578181015183820152602001613c62565b50505050905090810190601f168015613ca75780820380516001836020036101000a031916815260200191505b5095505050505050604051602081830303815290604052907bffffffffffffffffffffffffffffffffffffffffffffffffffffffff19166020820180517bffffffffffffffffffffffffffffffffffffffffffffffffffffffff8381831617835250505050604051806060016040528060328152602001614261603291396001600160a01b0388169190613f4d565b90506000818060200190516020811015613d4f57600080fd5b50517fffffffff0000000000000000000000000000000000000000000000000000000016630a85bd0160e11b1492505050949350505050565b60009081526001919091016020526040902054151590565b60008181526001830160205260408120548015613e5c5783546000198083019190810190600090879083908110613dd357fe5b9060005260206000200154905080876000018481548110613df057fe5b600091825260208083209091019290925582815260018981019092526040902090840190558654879080613e2057fe5b60019003818190600052602060002001600090559055866001016000878152602001908152602001600020600090556001945050505050611832565b6000915050611832565b6000613e728383613d88565b613ea857508154600181810184556000848152602080822090930184905584548482528286019093526040902091909155611832565b506000611832565b600082815260018401602052604081205480613f155750506040805180820182528381526020808201848152865460018181018955600089815284812095516002909302909501918255915190820155865486845281880190925292909120556122da565b82856000016001830381548110613f2857fe5b90600052602060002090600202016001018190555060009150506122da565b3b151590565b60606122d7848460008585613f6185613f47565b613fb2576040805162461bcd60e51b815260206004820152601d60248201527f416464726573733a2063616c6c20746f206e6f6e2d636f6e7472616374000000604482015290519081900360640190fd5b60006060866001600160a01b031685876040518082805190602001908083835b60208310613ff15780518252601f199092019160209182019101613fd2565b6001836020036101000a03801982511681845116808217855250505050505090500191505060006040518083038185875af1925050503d8060008114614053576040519150601f19603f3d011682016040523d82523d6000602084013e614058565b606091505b5091509150614068828286614073565b979650505050505050565b606083156140825750816122da565b8251156140925782518084602001fd5b60405162461bcd60e51b8152602060048201818152845160248401528451859391928392604401919085019080838360008315613b74578181015183820152602001613b5c565b6040518060c001604052806000815260200160006001600160a01b0316815260200160008152602001600081526020016000600281111561411657fe5b8152600060209091015290565b604051806101400160405280600081526020016000815260200160008152602001600081526020016000815260200160008152602001600081526020016000815260200160008152602001600081525090565b6040805160e08101825260008082526020820181905291810182905260608101829052608081018290529060a0820190614116565b828054600181600116156101000203166002900490600052602060002090601f016020900481019282601f106141ec57805160ff1916838001178555614219565b82800160010185558215614219579182015b828111156142195782518255916020019190600101906141fe565b50614225929150614229565b5090565b5b80821115614225576000815560010161422a56fe456e756d657261626c655365743a20696e646578206f7574206f6620626f756e64734552433732313a207472616e7366657220746f206e6f6e20455243373231526563656976657220696d706c656d656e7465724552433732313a207472616e7366657220746f20746865207a65726f20616464726573734552433732313a206f70657261746f7220717565727920666f72206e6f6e6578697374656e7420746f6b656e4552433732313a20617070726f76652063616c6c6572206973206e6f74206f776e6572206e6f7220617070726f76656420666f7220616c6c4552433732313a2062616c616e636520717565727920666f7220746865207a65726f20616464726573734552433732313a206f776e657220717565727920666f72206e6f6e6578697374656e7420746f6b656e456e756d657261626c654d61703a20696e646578206f7574206f6620626f756e64734552433732313a20617070726f76656420717565727920666f72206e6f6e6578697374656e7420746f6b656e4552433732313a207472616e73666572206f6620746f6b656e2074686174206973206e6f74206f776e4552433732314d657461646174613a2055524920717565727920666f72206e6f6e6578697374656e7420746f6b656e4552433732313a20617070726f76616c20746f2063757272656e74206f776e65724552433732313a207472616e736665722063616c6c6572206973206e6f74206f776e6572206e6f7220617070726f766564a264697066735822122027bec1802427c39fa85d32415bba9b7fc3d029aef7e8ae1ccddeb18231d78fb364736f6c634300060c003360806040523480156200001157600080fd5b506040518060400160405280600781526020016629ba3930b4b73d60c91b8152506040518060400160405280600781526020016629aa2920a4a72d60c91b8152506000620000646200011260201b60201c565b600080546001600160a01b0319166001600160a01b0383169081178255604051929350917f8be0079c531659141344cd1fd0a4f28419497f9722a3daafe3b4186f6b6457e0908290a3508151620000c39060049060208501906200012c565b508051620000d99060059060208401906200012c565b50506006805460ff1916601217905550620000f5600062000116565b60068054610100600160a81b0319163361010002179055620001c8565b3390565b6006805460ff191660ff92909216919091179055565b828054600181600116156101000203166002900490600052602060002090601f016020900481019282601f106200016f57805160ff19168380011785556200019f565b828001600101855582156200019f579182015b828111156200019f57825182559160200191906001019062000182565b50620001ad929150620001b1565b5090565b5b80821115620001ad5760008155600101620001b2565b61106d80620001d86000396000f3fe608060405234801561001057600080fd5b506004361061011b5760003560e01c806370a08231116100b257806395d89b4111610081578063a9059cbb11610066578063a9059cbb14610374578063dd62ed3e146103a0578063f2fde38b146103ce5761011b565b806395d89b4114610340578063a457c2d7146103485761011b565b806370a08231146102c2578063715018a6146102e857806379cc6790146102f05780638da5cb5b1461031c5761011b565b8063313ce567116100ee578063313ce5671461022d578063395093511461024b57806342966c6814610277578063449a52f8146102965761011b565b806306fdde0314610120578063095ea7b31461019d57806318160ddd146101dd57806323b872dd146101f7575b600080fd5b6101286103f4565b6040805160208082528351818301528351919283929083019185019080838360005b8381101561016257818101518382015260200161014a565b50505050905090810190601f16801561018f5780820380516001836020036101000a031916815260200191505b509250505060405180910390f35b6101c9600480360360408110156101b357600080fd5b506001600160a01b03813516906020013561048a565b604080519115158252519081900360200190f35b6101e56104a7565b60408051918252519081900360200190f35b6101c96004803603606081101561020d57600080fd5b506001600160a01b038135811691602081013590911690604001356104ad565b610235610534565b6040805160ff9092168252519081900360200190f35b6101c96004803603604081101561026157600080fd5b506001600160a01b03813516906020013561053d565b6102946004803603602081101561028d57600080fd5b503561058b565b005b610294600480360360408110156102ac57600080fd5b506001600160a01b038135169060200135610598565b6101e5600480360360208110156102d857600080fd5b50356001600160a01b03166105c2565b6102946105dd565b6102946004803603604081101561030657600080fd5b506001600160a01b03813516906020013561069e565b610324610706565b604080516001600160a01b039092168252519081900360200190f35b610128610715565b6101c96004803603604081101561035e57600080fd5b506001600160a01b038135169060200135610776565b6101c96004803603604081101561038a57600080fd5b506001600160a01b0381351690602001356107de565b6101e5600480360360408110156103b657600080fd5b506001600160a01b03813581169160200135166107f2565b610294600480360360208110156103e457600080fd5b50356001600160a01b031661081d565b60048054604080516020601f60026000196101006001881615020190951694909404938401819004810282018101909252828152606093909290918301828280156104805780601f1061045557610100808354040283529160200191610480565b820191906000526020600020905b81548152906001019060200180831161046357829003601f168201915b5050505050905090565b600061049e610497610934565b8484610938565b50600192915050565b60035490565b60006104ba848484610a24565b61052a846104c6610934565b61052585604051806060016040528060288152602001610f5d602891396001600160a01b038a16600090815260026020526040812090610504610934565b6001600160a01b031681526020810191909152604001600020549190610b81565b610938565b5060019392505050565b60065460ff1690565b600061049e61054a610934565b84610525856002600061055b610934565b6001600160a01b03908116825260208083019390935260409182016000908120918c168152925290205490610c18565b6105953382610c79565b50565b60065461010090046001600160a01b031633146105b457600080fd5b6105be8282610d75565b5050565b6001600160a01b031660009081526001602052604090205490565b6105e5610934565b6000546001600160a01b03908116911614610647576040805162461bcd60e51b815260206004820181905260248201527f4f776e61626c653a2063616c6c6572206973206e6f7420746865206f776e6572604482015290519081900360640190fd5b600080546040516001600160a01b03909116907f8be0079c531659141344cd1fd0a4f28419497f9722a3daafe3b4186f6b6457e0908390a36000805473ffffffffffffffffffffffffffffffffffffffff19169055565b60065461010090046001600160a01b031633146106ba57600080fd5b60006106ea82604051806060016040528060248152602001610f85602491396106e386336107f2565b9190610b81565b90506106f7833383610938565b6107018383610c79565b505050565b6000546001600160a01b031690565b60058054604080516020601f60026000196101006001881615020190951694909404938401819004810282018101909252828152606093909290918301828280156104805780601f1061045557610100808354040283529160200191610480565b600061049e610783610934565b846105258560405180606001604052806025815260200161101360259139600260006107ad610934565b6001600160a01b03908116825260208083019390935260409182016000908120918d16815292529020549190610b81565b600061049e6107eb610934565b8484610a24565b6001600160a01b03918216600090815260026020908152604080832093909416825291909152205490565b610825610934565b6000546001600160a01b03908116911614610887576040805162461bcd60e51b815260206004820181905260248201527f4f776e61626c653a2063616c6c6572206973206e6f7420746865206f776e6572604482015290519081900360640190fd5b6001600160a01b0381166108cc5760405162461bcd60e51b8152600401808060200182810382526026815260200180610eef6026913960400191505060405180910390fd5b600080546040516001600160a01b03808516939216917f8be0079c531659141344cd1fd0a4f28419497f9722a3daafe3b4186f6b6457e091a36000805473ffffffffffffffffffffffffffffffffffffffff19166001600160a01b0392909216919091179055565b3390565b6001600160a01b03831661097d5760405162461bcd60e51b8152600401808060200182810382526024815260200180610fef6024913960400191505060405180910390fd5b6001600160a01b0382166109c25760405162461bcd60e51b8152600401808060200182810382526022815260200180610f156022913960400191505060405180910390fd5b6001600160a01b03808416600081815260026020908152604080832094871680845294825291829020859055815185815291517f8c5be1e5ebec7d5bd14f71427d1e84f3dd0314c0f7b2291e5b200ac8c7c3b9259281900390910190a3505050565b6001600160a01b038316610a695760405162461bcd60e51b8152600401808060200182810382526025815260200180610fca6025913960400191505060405180910390fd5b6001600160a01b038216610aae5760405162461bcd60e51b8152600401808060200182810382526023815260200180610eaa6023913960400191505060405180910390fd5b610ab9838383610701565b610af681604051806060016040528060268152602001610f37602691396001600160a01b0386166000908152600160205260409020549190610b81565b6001600160a01b038085166000908152600160205260408082209390935590841681522054610b259082610c18565b6001600160a01b0380841660008181526001602090815260409182902094909455805185815290519193928716927fddf252ad1be2c89b69c2b068fc378daa952ba7f163c4a11628f55a4df523b3ef92918290030190a3505050565b60008184841115610c105760405162461bcd60e51b81526004018080602001828103825283818151815260200191508051906020019080838360005b83811015610bd5578181015183820152602001610bbd565b50505050905090810190601f168015610c025780820380516001836020036101000a031916815260200191505b509250505060405180910390fd5b505050900390565b600082820183811015610c72576040805162461bcd60e51b815260206004820152601b60248201527f536166654d6174683a206164646974696f6e206f766572666c6f770000000000604482015290519081900360640190fd5b9392505050565b6001600160a01b038216610cbe5760405162461bcd60e51b8152600401808060200182810382526021815260200180610fa96021913960400191505060405180910390fd5b610cca82600083610701565b610d0781604051806060016040528060228152602001610ecd602291396001600160a01b0385166000908152600160205260409020549190610b81565b6001600160a01b038316600090815260016020526040902055600354610d2d9082610e67565b6003556040805182815290516000916001600160a01b038516917fddf252ad1be2c89b69c2b068fc378daa952ba7f163c4a11628f55a4df523b3ef9181900360200190a35050565b6001600160a01b038216610dd0576040805162461bcd60e51b815260206004820152601f60248201527f45524332303a206d696e7420746f20746865207a65726f206164647265737300604482015290519081900360640190fd5b610ddc60008383610701565b600354610de99082610c18565b6003556001600160a01b038216600090815260016020526040902054610e0f9082610c18565b6001600160a01b03831660008181526001602090815260408083209490945583518581529351929391927fddf252ad1be2c89b69c2b068fc378daa952ba7f163c4a11628f55a4df523b3ef9281900390910190a35050565b6000610c7283836040518060400160405280601e81526020017f536166654d6174683a207375627472616374696f6e206f766572666c6f770000815250610b8156fe45524332303a207472616e7366657220746f20746865207a65726f206164647265737345524332303a206275726e20616d6f756e7420657863656564732062616c616e63654f776e61626c653a206e6577206f776e657220697320746865207a65726f206164647265737345524332303a20617070726f766520746f20746865207a65726f206164647265737345524332303a207472616e7366657220616d6f756e7420657863656564732062616c616e636545524332303a207472616e7366657220616d6f756e74206578636565647320616c6c6f77616e636545524332303a206275726e20616d6f756e74206578636565647320616c6c6f77616e636545524332303a206275726e2066726f6d20746865207a65726f206164647265737345524332303a207472616e736665722066726f6d20746865207a65726f206164647265737345524332303a20617070726f76652066726f6d20746865207a65726f206164647265737345524332303a2064656372656173656420616c6c6f77616e63652062656c6f77207a65726fa26469706673582212205e53d2744adaa421b39887178da3b3b0396cb1b7fae6e97a88f19b58da45355864736f6c634300060c003368747470733a2f2f6170692e6273632e73747261696e7a2e746563682f73747261696e2f",
  "linkReferences": {},
  "deployedLinkReferences": {}
}